:100000000C94181A0C94401A0C94401A0C94401A30
:100010000C94401A0C94401A0C94401A0C94401AF8
:100020000C94401A0C94401A0C9455220C94802382
:100030000C94401A0C94401A0C94401A0C94401AD8
:100040000C94401A0C94101C0C94401A0C94401AF6
:100050000C94401A0C94401A0C94401A0C94F825F5
:100060000C94401A0C94401A0C94401A0C94401AA8
:100070000C94401A0C94401A0C94401A0C94401A98
:100080000C94231B0C94401A0C94401A0C94401AA4
:100090000C94401A0C94401A0C94401A0C94401A78
:1000A0000C94401A0C94401A0C94401AF0F89C8E50
:1000B0008783878E9CF8F00000FEFF030303030391
:1000C000070EFCF80000FEFF0303030303070EFC0A
:1000D000F80000FFFF00000000000000FFFF00002C
:1000E000FEFF8383838383C7EE7C380000F8FC0E19
:1000F00007030303070EFCF800003F7FE0C0808089
:10010000C0E07F3FFFFF01010101010101FFFF008E
:1001100000FFFF0C0C0C0C1C3E77E3C100007FFFBE
:10012000C0C0C0C0C0E0703F1F00001F3F70E0C0F3
:10013000C0C0E0703F1F00007FFFC1C1C1C1C1E36B
:10014000773E1C00001F3F70E0C0C0C0E0703F1F42
:10015000000000000001FFFF01000000D5F08D1439
:10016000A1C881CFD9F1AF2000000000000000023B
:10017000000000000000000000000000000002007D
:10018000000000000000000000000000000000006F
:10019000000000000000000000000000000000005F
:1001A0000000808000008890E024FFE440A8A010B8
:1001B0004820B080000000000000000000000000A7
:1001C000000000000000000000000000000000002F
:1001D000000000000000000000000000000000001F
:1001E0000000000000080000000000000000000007
:1001F00000000000C08080C0C0C08080C0008000BF
:1002000000000000C0C0C08080C0C0C0C0808000AE
:10021000C0E07078B8B8B8B8B0B6A6B0BB832066F6
:100220007080ACAC81ADACAC81ACAD89ACAC807D48
:100230007D393951506BC8C88888F0E006B6373729
:100240003704401C0C88888C9C9C40584040C0C09F
:10025000C0008000000000C08080C0C0C08080C09E
:10026000008000000000000000000000000000000E
:10027000008000001BE333C64736B73E1FB0F7F0DF
:10028000F8F8F8F0B6F6F683C3F9F9F87A98FCFBBB
:10029000037C872D0181C1C1C1C58D0101070F7C80
:1002A000FF058D010181C1C1C1C1850D011107FF8C
:1002B000FFF003E3C70F6CE01CBC7CFC005DECECC2
:1002C000C303F9FFFEFDFDFDFDFD00F6F604F0FFA2
:1002D000F8FAF348BC98B01F3EB73647C633E31B65
:1002E000C03F80000000000000000000000000008F
:1002F00018AE1C0E9E9F90FFC0C0FFAA144370044E
:1003000014140535F9FD6434BDA5BDB93CAA57EFF9
:10031000CF0EE00FD0939F372F272F27205F40402D
:100320007F5E405840575F5F4F474F47404078B926
:10033000D34FD81FBF800E1700037F66608EA6B60E
:10034000B6B0989D9DAD15DD099D00363662488892
:10035000020A0A0809020314AAFFC0C0FF909F9E68
:100360000E1CAE18C3700000000000000000000862
:1003700000000200071313061716131207101E00C1
:100380000000000000020203010100000000020260
:1003900002000100070F292927321A0A0A0A02045B
:1003A000081B5B5A58405B5B4A68243414040827D6
:1003B0003018030415151115141119030614151519
:1003C000111515151414151412190C07000000004E
:1003D0000603000000000007121306171613130788
:1003E000101E0002030800000000000000000000D2
:1003F00000000000000000000000000000000000FD
:1004000040000000000000000000C0202080F0F844
:10041000F8F8F8F8F8F8F8F8F8F838007848487874
:100420000078484878007848484878007848487804
:100430000078484878000078F8F8F8F8F8F8F8F804
:10044000F8F8F8F000202020C000000000000000B4
:10045000000000000000000000000000000000009C
:100460000000000000000000000000000400000088
:10047000000000000000000000000000000000007C
:10048000000000000000C0300C03000000083CFC2D
:10049000F8F0F0FCFFFF7F1F0700303CBFBF8F87E5
:1004A000878787FFFFFFFFFF0000FFFFFFFFFF873A
:1004B00087878FFFFFFFF00202020202C2F2FCFFF9
:1004C000FF3FFFFFF0E08000010618E00010000091
:1004D000000000000000000000000000000000001C
:1004E00000000020000000000000000000000000EC
:1004F00000000000000000000000000000000000FC
:1005000000000000C060E183038383C3E363000154
:100510000787C72727C786040303C4E7272727279A
:1005200027676707E7E7A3A1A2A0A7E7C70707C751
:10053000E7272727272767C003016467E7E7A7A303
:1005400020220007076767E6E5A3A321200000003B
:10055000000080000000000000000000000000001B
:10056000000000000000000000000000000000008B
:10057000000000000000000000000000000000007B
:100580000000000301000103030100020300000258
:100590000301010101010302000003030202020240
:1005A0000203030003030000000001010202000136
:1005B000030202020202020300000002020202031E
:1005C000030303000000020202020303030300000E
:1005D000000000000000000000000000000000001B
:1005E000000000000000000000000000000000000B
:1005F00000000000000000000000000000000200F9
:1006000000000000000000000000000000000000EA
:1006100000000000000000000000000000000000DA
:100620000000800000008810A004AB440000A0106F
:100630000800A00000000000000000000000000012
:1006400000000000000000000000000000000000AA
:10065000000000000000000000000000000000009A
:10066000000000000000000000000000000000008A
:1006700000000000C08080C0C0C08080800080007A
:1006800000000000C0C0C08080C080C080808000AA
:10069000C0E07078B8B8B8B0B0B4A2B0AA812044B5
:1006A0006080A8848085A8A480ACA889A8A480754F
:1006B000783938515069C8C08800E0E006B637374D
:1006C0003704401C0C88888C9C9C40584040C0C01B
:1006D000C0008000000000C08080C0C0C08080C01A
:1006E000008000000000000000000000000000008A
:1006F000008000001BE333C64736B73E1FB0F7F05B
:10070000F8F8F8F0B6F6F683C3F9F9F87A98FCDB56
:10071000035C870D0181C1C1C1C58D0101070F7C3B
:10072000FF058D010181C1C1C1C1850D011107FF07
:10073000FFF003E3C70F6CE01CBC7CFC005DECEC3D
:10074000C303F9FFBEFDBDFDFDDD00F6F604F0FFBD
:10075000F8F8F348BC98B01F3EB73647C633E31BE2
:10076000C03F80000000000000000000000000000A
:1007700018AE1C0E9E9F90FFC0C0FFAA14437004C9
:1007800014140535F9FD6434BDA5BDB12CAA57EF8D
:10079000CF0EE00FD0939F372F272F27205F4040A9
:1007A0007F5E405840575F5F4F474F47404078B9A2
:1007B000D34FD81FBF800E1700037F66608EA6B68A
:1007C000B6B0989D9DAD15DD099D003636620808CE
:1007D000020A0A0809020314AAFFC0C0FF909F9EE4
:1007E0000E1CAE18C37000000000000000000000E6
:1007F00000000200071313061716131207101E003D
:1008000000000000000002030101000000000202DD
:10081000020000000205280122100A000A0002045A
:1008200008110A5008400A510A4020140004080523
:10083000201003040115011500110901021401150E
:100840000115011500140114021108050000000033
:100850000201000000000007121306171613130709
:10086000101E000203000000000000000000000055
:100870000000000000000000000000000000020076
:100880000000000000000000000000000000000068
:100890000000000000000000000000000000000058
:1008A0000000800000008810A004AB440000A010ED
:1008B0000800A00000000000000000000000000090
:1008C0000000000000000000000000000000000028
:1008D0000000000000000000000000000000000018
:1008E0000000000000000000000000000000000008
:1008F00000000000800080C0C0C0808080008000B8
:1009000000000000804080008040804080808000A7
:1009100080402070B8B8B8B8B0B4A2B0BA81206432
:100920007080A8AC80ADA8AC80ACA889A8AC807D54
:1009300078312851004188408800A04002142215D7
:1009400022040014080088048814005000408040ED
:1009500080008000000000408080C0C0C08080C057
:100960000000000000000000000000000000000087
:10097000000000000AE133C64736B73C1AB0F2F077
:10098000F8F8F8F0B2F4F281C2F9F8F87A18BCFB82
:10099000037C872D0181C1C1C1C58D0101070F7C79
:1009A000FF058D010181C1C1C1C1850D011107FF85
:1009B000FFF003E3C70568E01CBC7CFC005DEC6C49
:1009C000C201F87DFE7DFC7DFC7D0074F604F07DA7
:1009D000F878F248BC18B01D3EB73647C633E31B63
:1009E000C0158000000000000000000000000000B2
:1009F000080408048A9F90FFC0C0FFAA0041200499
:100A000000140015A8552014A805A81128000245B7
:100A10008F0EA00FD0139F372F272F27205F404026
:100A20007F5E405840575F5F4F474F47404078B91F
:100A3000D34FD81FBF000E1700032B462004A2146B
:100A4000A2108815880500550815001422400800DA
:100A500002000A0008000214AAFFC0C0FF909F9E77
:100A60000E14AA10825000000000000000000000D8
:100A700000000200021303061716031002100A00FA
:100A80000000000000000201000100000000020060
:100A9000020000000205280122100A000A000204D8
:100AA00008110A5008400A510A40201400040805A1
:100AB0002010020400150015001108010214001591
:100AC00000150015001400140211080500000000B4
:100AD0000201000000000005021306171613130799
:100AE00000140000020000000000000000000000F0
:100AF00000000000000000000000000000000200F4
:100B000000000000000000000000000000000000E5
:100B100000000000000000000000000000000000D5
:100B20000000800000008810A004AB440000A0106A
:100B30000800A0000000000000000000000000000D
:100B400000000000000000000000000000000000A5
:100B50000000000000000000000000000000000095
:100B60000000000000000000000000000000000085
:100B700000000000800080408040800080008000F5
:100B800000000000804080008040804080008000A5
:100B900080402050A890A890A094A290AA812044C0
:100BA0002080A8848085A8848084A881A88480551A
:100BB00028112851004188408800A04002142215C5
:100BC000220400140800880488140050004080406B
:100BD0008000800000000040800080408000804055
:100BE0000000000000000000000000000000000005
:100BF000000000000A4122440214A2140A10A2506C
:100C0000A850A850A254A2018251A8502A10A8515D
:100C1000027C872D0181C1C1C1C58D0101070F5C17
:100C2000FF058D010181C1C1C1C1850D011107FF02
:100C3000FE50024182052840081428540055A8445B
:100C40008201A855AA55A855A8550054A204A0553C
:100C5000A850A240A810A0152A1522458211A21161
:100C6000801580000000000000000000000000006F
:100C7000080408048A1580558040AA000041200419
:100C800000140015A8552014A805A8112800024535
:100C90008A04A00780138F172F072F07205F0040BB
:100CA0002F5E005800571F5F0F470F470040281165
:100CB00083458815AA000A1500012A442004A214BD
:100CC000A210881588050055081500142240080058
:100CD00002000A0008000214AA558040AA108A14D3
:100CE0000A14AA108250000000000000000000005A
:100CF00000000200021102040214021002100A0095
:100D000000000000000002010001000000000200DD
:100D1000020000000205280122100A000A00020455
:100D200008110A5008400A510A402014000408051E
:100D3000201002040015001500110801021400150E
:100D40000015001500140014021108050000000031
:100D50000201000000000005021102150211020547
:100D6000001400000200000000000000000000006D
:100D70000000000000000000000000000000020071
:100D80000000000000000000000000000000000063
:100D90000000000000000000000000000000000053
:100DA0000000800000008810A004AB440000A010E8
:100DB0000800A0000000000000000000000000008B
:100DC0000000000000000000000000000000000023
:100DD0000000000000000000000000000000000013
:100DE0000000000000000000000000000000000003
:100DF0000000000080008040804080008000800073
:100E00000000000080408000804080408000800022
:100E100080402050A810A810A014A210AA012044BD
:100E20002000A8048005A8048004A801A804805517
:100E300028112851004188408800A0400214221542
:100E400022040014080088048814005000408040E8
:100E500080008000000000408000804080008040D2
:100E60000000000000000000000000000000000082
:100E7000000000000A4122440214A2140A10A250E9
:100E8000A850A850A254A2018251A8502A10A851DB
:100E900002548205000180418045880100050A5402
:100EA000AA0588010001804180418005001102559A
:100EB000AA50024182052840081428540055A8442D
:100EC0008201A855AA55A855A8550054A204A055BA
:100ED000A850A240A810A0152A1522458211A211DF
:100EE00080158000000000000000000000000000ED
:100EF000080408048A1580558040AA000041200497
:100F000000140015A8552014A805A81128000245B2
:100F10008A04A00580118A152A052A05205500405B
:100F20002A54005000550A550A450A450040281128
:100F300082458815AA000A1500012A442004A2143B
:100F4000A2108815880500550815001422400800D5
:100F500002000A0008000214AA558040AA108A1450
:100F60000A14AA10825000000000000000000000D7
:100F700000000200021102040214021002100A0012
:100F8000000000000000020100010000000002005B
:100F9000020000000205280122100A000A000204D3
:100FA00008110A5008400A510A402014000408059C
:100FB000201002040015001500110801021400158C
:100FC00000150015001400140211080500000000AF
:100FD00002010000000000050211021502110205C5
:100FE00000140000020000000000000000000000EB
:100FF00000000000000000000000000000000200EF
:1010000000000000000000000000000000000000E0
:1010100000000000000000000000000000000000D0
:1010200000000000000000000000030000000000BD
:1010300000000000000000000000000000000000B0
:1010400000000000000000000000000000000000A0
:101050000000000000000000000000000000000090
:101060000000000000000000000000000000000080
:1010700000000000800080408040800080008000F0
:1010800000000000804080008040804080008000A0
:1010900080402050A810A810A014A210A80020443E
:1010A0002000A8048004A8048004A800A804805498
:1010B00028102850004088408800A04002142215C3
:1010C0002204001408008804881400500040804066
:1010D0008000800000000040800080408000804050
:1010E0000000000000000000000000000000000000
:1010F000000000000A4122440214A2140A10A25067
:10110000A850A850A254A2018251A8502A10A85158
:1011100002548205000180418045880100050A547F
:10112000AA05880100018041804180050011025517
:10113000AA50024182052840081428540055A844AA
:101140008201A855AA55A855A8550054A204A05537
:10115000A850A240A810A0152A1522458211A2115C
:10116000801580000000000000000000000000006A
:10117000080408048A1580558040AA000041200414
:1011800000140015A8552014A805A8112800024530
:101190008A04A00580118A152A052A0520550040D9
:1011A0002A54005000550A550A450A4500402811A6
:1011B00082458815AA000A1500012A442004A214B9
:1011C000A210881588050055081500142240080053
:1011D00002000A0008000214AA558040AA108A14CE
:1011E0000A14AA1082500000000000000000000055
:1011F00000000200021102040214021002100A0090
:1012000000000000000002010001000000000200D8
:1012100002000000020500010200020002000204B8
:1012200000010200000002010200000400040005A9
:101230000000020400050005000100010204000591
:101240000005000500040004020100010000000088
:101250000201000000000005021102150211020542
:101260000014000002000000000000000000000068
:10127000000000000000000000000000000002006C
:10128000000000000000000000000000000000005E
:10129000000000000000000000000000000000004E
:1012A000000000000000000000000300000000003B
:1012B000000000000000000000000000000000002E
:1012C000000000000000000000000000000000001E
:1012D000000000000000000000000000000000000E
:1012E00000000000000000000000000000000000FE
:1012F000000000000000800080000000000080006E
:10130000000000000000000080408040800080005D
:10131000804000408000800080008000800000400D
:1013200000008000800080008000800080008040FD
:10133000000000400040804080008040000000002D
:10134000000000000000800080000000000000009D
:10135000000000000000000000000000000000008D
:10136000000000000000000000000000000000007D
:1013700000000000004122440214A2140A10A2102E
:1013800000000000000022018251A8502A10A8513C
:1013900002548205000180418045880100050A54FD
:1013A000AA05880100018041804180050011025595
:1013B000AA50024182052840081428540055A84428
:1013C0008201A855AA55A855A85500500000000054
:1013D000000000000000A0142A1422458211A00081
:1013E00000000000000000000000000000000000FD
:1013F00000000000801580558040AA0000412000B8
:101400000000000000000014A805A81128000245F3
:101410008A04A00580118A152A052A052055004056
:101420002A54005000550A550A450A450040281123
:1014300082458815AA000A1500012A4420042214B6
:1014400022100815080500150815001400000000FA
:1014500000000000000002142A550040AA108A145F
:101460000000000000000000000000000000000874
:10147000000000000001000000000000000000006B
:10148000000000000000000100010000000000005A
:10149000000000000000000000000000000000004C
:1014A000000000000000000000000000000000013B
:1014B000000000000000000000000000000000002C
:1014C000000000000000000000000000000000001C
:1014D0000400000000000000000000000000000008
:1014E00000000000000800000000000000000000F4
:1014F00000000000000000000000000000000200EA
:1015000000000000000000000000000000000000DB
:1015100000000000000000000000000000000000CB
:1015200000000000000000000000030000000000B8
:1015300000000000000000000000000000000000AB
:10154000000000000000000000000000000000009B
:10155000000000000000000000000000000000008B
:10156000000000000000000000000000000000007B
:10157000000000000000000000000000000000006B
:1015800000000000000000000000000000008000DB
:10159000804000408000800080008000800000408B
:1015A000000080008000800080008000800080407B
:1015B00000000040004000000000000000000000AB
:1015C000000000000000000000000000000000001B
:1015D000000000000000000000000000000000000B
:1015E00000000000000000000000000000000000FB
:1015F00000000000000000000000000000000000EB
:101600000000000000000000000000000010A851D1
:1016100002548205000180418045880100050A547A
:10162000AA05880100018041804180050011025512
:10163000AA5002418205284000000000000000007E
:10164000000000000000000000000000000000009A
:10165000000000000000000000000000000000008A
:10166000000000000000000000000000000000007A
:10167000000000000000000000000000000000006A
:1016800000000000000000000000000020000245F3
:101690008A04A00580118A152A052A0520550040D4
:1016A0002A54005000550A550A450A4500402811A1
:1016B00082458815AA000A0500010000000000000C
:1016C000000000000000000000000000000000001A
:1016D000000000000000000000000000000000000A
:1016E00000000000000000000000000000000008F2
:1016F00000000000000000000000000000000000EA
:1017000000000000000000000001000000000000D8
:1017100000000000000000000000000000000000C9
:1017200000000000000000000000000000000000B9
:1017300000000000000000000000000000000000A9
:101740000000000000000000000000000000000099
:101750000400000000000000000000000000000085
:101760000000000000080000000000000000000071
:101770000000000000000000000000000000020067
:101780000000000000000000000000000000000059
:101790000000000000000000000000000000000049
:1017A0000000000000000000000003000000000036
:1017B0000000000000000000000000000000000029
:1017C0000000000000000000000000000000000019
:1017D0000000000000000000000000000000000009
:1017E00000000000000000000000000000000000F9
:1017F00000000000000000000000000000000000E9
:101800000000000000000000000000000000800058
:101810008040004080008000800080008000004008
:1018200000008000800080008000800080008040F8
:1018300000000000000000000000000000000000A8
:101840000000000000000000000000000000000098
:101850000000000000000000000000000000000088
:101860000000000000000000000000000000000078
:101870000000000000000000000000000000000068
:101880000000000000000000000000000000000157
:1018900002040205000100010005080100050A1408
:1018A0002A050801000100010001000500110215D0
:1018B0002A100200000000000000000000000000EC
:1018C0000000000000000000000000000000000018
:1018D0000000000000000000000000000000000008
:1018E00000000000000000000000000000000000F8
:1018F00000000000000000000000000000000000E8
:1019000000000000000000000000000000000000D7
:1019100000000000000000000000000000000000C7
:1019200000000000000000000000000000000000B7
:1019300000000000000000000000000000000000A7
:101940000000000000000000000000000000000097
:101950000000000000000000000000000000000087
:10196000000000000000000000000000000000086F
:101970000000000000000000000000000000000067
:101980000000000000000000000100000000000056
:101990000000000000000000000000000000000047
:1019A0000000000000000000000000000000000037
:1019B0000000000000000000000000000000000027
:1019C0000000000000000000000000000000000017
:1019D0000400000000000000000000000000000003
:1019E00000000000000800000000000000000002ED
:1019F00000000000000000000000000000000200E5
:101A000000000000000000000000000000000000D6
:101A100000000000000000000000000000000000C6
:101A200000000000000000000000000000000000B6
:101A300000000000000000000000000000000000A6
:101A40000000000000000000000000000000000096
:101A50000000000000000000000000000000000086
:101A6000000000000008000000000000000000006E
:101A70000000000000000000000000000000000066
:101A80000000000000000000000000000000000056
:101A90000000000000000000000000000000000046
:101AA0000000000000000000000000000000000036
:101AB0000000000000000000000000000000000026
:101AC0000000000000000000000000000000000016
:101AD0000000000000000000000000000000000006
:101AE00000000000000000000000000000000000F6
:101AF00000000000000000000000000000000000E6
:101B000000000000000000000000000000000000D5
:101B100000000000000000000000000000000000C5
:101B200000000000000000000000000000000000B5
:101B300000000000000000000000000000000000A5
:101B40000000000000000000000000000000000095
:101B50000000000000000000000000000000000085
:101B60000000000000000000000000000000000075
:101B70000000000000000000000000000000000065
:101B80000000000000000000000000000000000055
:101B90000000000000000000000000000000000045
:101BA0000000000000000000000000000000000035
:101BB0000000000000000000000000000000000025
:101BC0000000000000000000000000000000000015
:101BD0000000000000000000000000000000000005
:101BE00000000000000000000000000000000008ED
:101BF00000000000000000000000000000000000E5
:101C000000000000000000000001000000000000D3
:101C100000000000000000000000000000000000C4
:101C200000000000000000000000000000000000B4
:101C300000000000000000000000000000000000A4
:101C40000000000000000000000000000000000094
:101C50000400000000000000000000000000000080
:101C6000000000000008000000000000000000006C
:101C70000000000000000000000000000000000064
:101C80004000000000000000000000000000000014
:101C90000000000000000000000000000000000044
:101CA0000000000000000000000000000000000034
:101CB0000000000000000000000000000000000024
:101CC0000000000000000000000000000000000014
:101CD0000000000000000000000000000000000004
:101CE00000000000000000000000000004000000F0
:101CF00000000000000000000000000000000000E4
:101D000000000000000000000000000000000000D3
:101D100000000000000000200000000000000000A3
:101D200000000000000000000000000000000000B3
:101D300000000000020000000000000000000000A1
:101D40000000000000000000000000000010000083
:101D50000000000000000000000000000000000083
:101D60000000002000000000000000000000000053
:101D70000000000000000000000000000000000063
:101D8000000000000000000000000004000000004F
:101D90000000000000000000000000000000000043
:101DA0000000000000000000000000000000000033
:101DB0000000000000000000000000000000000023
:101DC0000002000000000000000000000000000011
:101DD0000000800000000000000000000000000083
:101DE00000000000000000000000000000000000F3
:101DF00000000000000000000000000000000000E3
:101E000000000000000000000000000000000000D2
:101E100000000000000000000000000000000000C2
:101E200000000000000000000000020000000000B0
:101E300000000000000000000000000000000000A2
:101E40000000000000000000000000000000000092
:101E50000000000000000000000000000000000082
:101E600000000000000000000000003C7F987CF8AB
:101E70009020281818080008060F01040E0201001F
:101E80000000008000BC7F987CF89020281818087B
:101E90000208060F01040E02010000000002031BED
:101EA0006FEDCD8C4808000000000001000000022A
:101EB000031B6FEDCD8C48080000000000010400FA
:101EC00005000000081A1B1B0F0D0D0C0808081454
:101ED00000081A1B1B0F0D0D0C08087ED5ABD5ABE7
:101EE000D5ABD5ABD5ABD5AB7E1C2241007F7F49AE
:101EF0004949360041221C7ED5ABD5ABD5ABD5AB1D
:101F0000D5ABD5AB7E1C2241007F7F4040404000D6
:101F100041221C7ED5ABD5ABD5ABD5ABD5ABD5ABC4
:101F20007E1C2241004F4F494979790041221C0013
:101F300000000000000000000000000000000000A1
:101F40000000000000000000000000000000000091
:101F50000000000000000000000000000000000081
:101F600000000000000000000000000000000080F1
:101F7000C0603010905828A874341C9C4C3A9A6E5B
:101F8000D43E0D0000000000000000000000000032
:101F90000000000000000000000000000000000041
:101FA0000000000000000000000000000000000031
:101FB0000000000000000000000000000000000021
:101FC00000FC03FE0124FE0124F8178111F906002C
:101FD00054AF5503E01C02000000000000000000A8
:101FE00000000000000000000000000000000000F1
:101FF00000000000000000000000000000000000E1
:1020000000000000000000000000000000000000D0
:102010000000000000000708132449928C53AC50C4
:10202000AAC0871860811E20718E10000000000079
:1020300000000000000000000000000000000000A0
:102040000000000000000000000000000000000090
:1020500000000000000000000080808080C0C0C040
:10206000E0E0707070389818182C2E4A8B85051790
:102070002243428B93224387C4C44B2E24282D1025
:102080001010101010101010101010101010101050
:10209000180808080808080C0C0C0C0C0C1C180C70
:1020A0000E06060602060307030103090B090B09C6
:1020B000111214040808081214141415150D060A38
:1020C0000A08050511111202170B150E030018045A
:1020D0000202013C7EFFFFFFFF7E3C30428181C156
:1020E000F37E3C304080808181423C000000000053
:1020F00000000000000000000000000101010205D6
:1021000006070707050200000000000000000000AD
:1021100000000000000000000000001C141F152734
:10212000489E2A4E902040800000000000000000E1
:1021300000000000000000C040C00080C0B8A83807
:10214000000000000000000000000000000000008F
:1021500000000000000000000080808000000000FF
:10216000000000000000000000000000000000006F
:1021700000000000010204091224499224C810E062
:1021800000000000E010C82492492513090403024E
:10219000030000000000000000000000000000003C
:1021A000000000000000000000000003023B2C3D86
:1021B000011421082208223C363E2A2A2A2A2A4AC9
:1021C00052545454545454549424489020031C01A1
:1021D0000E0007000007000E011C03402090482855
:1021E000A8A8A8A8A8A8A8A4945454545454545EC9
:1021F0005A4E1044105C141C007050700000000017
:1022000000000000000000000000000000000000CE
:1022100000000000000000000000000182440000F7
:102220000000000000000000000000000000294441
:10223000820100000000000000000000000000001B
:1022400000000000000000000000000000003868EE
:10225000F8B0E05080D0882088208828A8A8A8A8B6
:10226000A8A8A8A494545454545454545249241221
:1022700008807000E000C00000C000E00070800432
:10228000091224292A2A2A2A2A2A2A4A5254545428
:10229000545454F4B4EE1A4E1020002070507000C4
:1022A0000000000000000302030000000000000026
:1022B000000000000000000000000000C040C0203E
:1022C000904824934827100E010000010E10274863
:1022D000932448902040800000000000000000008F
:1022E00000000000000000000000000000000000EE
:1022F00000000000000000000000000000000000DE
:10230000000000000000000000000040705079054F
:102310003B29340201000000000000000000000022
:102320000000000102040F15E741C21C141C00004C
:10233000000000000000000000000000000000009D
:10234000000000000000000000000000000000008D
:10235000000000000000000000000000000000007D
:10236000000000000000000000000000000000006D
:10237000000000000000000000000101010000005A
:10238000000000000000000000000000000000004D
:102390000000000000000000202428F870F8F87801
:1023A000B080402020C0800000000000000000003D
:1023B00000010303020101000906040107020000F5
:1023C0000000101022F4D8F8F8F00060309020409F
:1023D000C080400000000000000000010103030273
:1023E00000010003040C01000000002424287C5E8E
:1023F0009EFEFCC0609050488810302060000000B5
:10240000000000000000000000080C060B000000A7
:10241000000000000010B0606040C0804020C0F8A4
:102420006C7C7C3A101000000000000000000000EE
:102430000010180C14030000000000000000000051
:10244000000000000000000000000000000000008C
:10245000000000000000000000000000000000007C
:10246000000000000000000000000000000000006C
:102470000000000000000000C0380700000000005D
:10248000000000000000804080000000000080008C
:102490000000000000000000000000187080000331
:1024A0000C70800000000000000000000000000030
:1024B000000000000000000000000000000000001C
:1024C0000080700E01000000000000000040A0B875
:1024D000BE03BC7F0300FCFF807CFFE0D0A01C702B
:1024E000604001020C30C00000017F0000807F00CE
:1024F00000000000000000000000000000000000DC
:102500000000000000000000000000E018070000CC
:10251000000000000000183C7FF3F9E1E1F9F3FF4F
:10252000FEE8F7FFFFE6FDFFE7F3C3C3F3E7FE00B6
:1025300080E03F0000FF0E100C03000000008080D0
:10254000000000000000000000000000000000008B
:102550000000000000F00FF07807D82010101020C5
:10256000204040000003FFFFFFFFFF7FFF77674F22
:102570006F7FFFFFFFDFBFBF3FDF6718070100006E
:1025800000C13ED010E8F40CFE01FEFEF10EF0009A
:10259000000000000000000000000000000000F04B
:1025A0000E310E0300C038070202010101B942E2F8
:1025B0001E0201C3870F1FBF1F1F1A1A3E7F3F9FB6
:1025C0008F070379FEEF1C8050A814E201FEFFFF85
:1025D00088FFFF00FF00FFFFFF007FB0C8F4FA3D57
:1025E000CD3509060000000000F00FF003000000E8
:1025F000780100000000C0E0FE3CC9F234CCF3D505
:10260000D6D6D3A9A85183E6F81D61BFDFE038D83C
:10261000E3F0F86215AA50A7489FDFFFDCDFDFDE9A
:102620007DFEFFFFFF78BF4F370B04030000000063
:1026300000008040B8C7E0F3F0F8F8F8F6F6EFDFF6
:10264000BE7D73EFCFBC631FFFF8C30300183D7B53
:102650001B00FFFFFF00FFFB3DCE16AB55A854A8A3
:10266000C5AA651AFFFFFFFFFFFBF9DEDF6FA7DDDD
:102670007E00FF000000000000000000F806F9FEE8
:10268000FFFFFFFFFF3FFFFFFFFFFFFFFFFFFFFC1D
:10269000F9E70F9EF8771FC03FC1FCFEFFFF3CCF5C
:1026A000F1768BFCFFF0C5AA55BE7FFFFFFFF7F761
:1026B000F7F7F7F7FBFBFDFD7EAF55AA15CA300F04
:1026C000000000000000000000000000000000000A
:1026D0000000000000000000C0F8FFFFFFFFFFFF48
:1026E000FFFFFFFFFFFFFFFFFFFFFFFFFFFFFFFFFA
:1026F000FFFFFFFFFFFFFFFFFFFFFFFFFFFFFFFFEA
:10270000FCF080000000000000000000000000005D
:1027100000000000000000000000000000000000B9
:102720000080F0FEFFFFFFFFFFFFFFFFFFFFFFFF47
:10273000FFFFFFFFFFFFFFFFFFFFFFFFFFFFFFFFA9
:10274000FFFFFFFFFFFFFFFFFFFFFFFFFFFF7F0018
:102750000000000000000000000000000000000079
:102760000000000000000000000000E0F8FFFFFF94
:10277000FFFFFFFFFFFFFFFFFFFFFFFFFFFFFFFF69
:10278000FFFFFFFFFFFFFFFFFFFFFFFFFFFFFFFF59
:10279000FFFFFFFFFFFF0F1F0F03000000008080FF
:1027A0000000000000000000000000000000000029
:1027B0000000000000F0FFFFFFFFFFFFFFFFFFFF33
:1027C000FFFFFFFFFFFFFFFFFFFFFFFFFFFFFFFF19
:1027D000FFFFFFFFFFFFFFFFFFFFFFFFFFFFFFFF09
:1027E000FFFFFEF0F0F8FCFCFEFFFFFFFFFEF00035
:1027F000000000000000000000000000000000F0E9
:10280000FEFFFFFFFFFFFFFFFFFFFFFFFFFFFFFFD9
:10281000FFFFFFFFFFFFFFFFFFFFFFFFFFFFFFFFC8
:10282000FFFFFFFFFFFFFFFFFFFFFFFFFFFFFFFFB8
:10283000FFFFFFFFFFFFFFFFFFFFFFF0F8FCFEFFC2
:10284000FF3F0F060000000000F0FFFFFFFFFFFF4B
:10285000FFFFFFFFFFFFFFFFFFFFFFFFFFFFFFFF88
:10286000FFFFFFFFFFFFFFFFFFFFFFFFFFFFFFFF78
:10287000FFFFFFFFFFFFFFFFFFFFFFFFFFFFFFFF68
:10288000FFFFFFFFFFFFFF7F3F0F07030000000078
:10289000000080C0F8FFFFFFFFFFFFFFFFFFFFFF0B
:1028A000FFFFFFFFFFFFFFFFFFFFFFFFFFFFFFFF38
:1028B000FFFFFFFFFFFFFFFFFFFFFFFFFFFFFFFF28
:1028C000FFFFFFFFFFFFFFFFFFFFFFFFFFFFFFFF18
:1028D000FFFFFF000000000000000000F8FEFFFF07
:1028E000FFFFFFFFFFFFFFFFFFFFFFFFFFFFFFFFF8
:1028F000FFFFFFFFFFFFFFFFFFFFFFFFFFFFFFFFE8
:10290000FFFFFFFFFFFFFFFFFFFFFFFFFFFFFFFFD7
:10291000FFFFFFFFFFFFFFFFFFFFFFFFFFFF3F0F77
:102920000000000000000000100142428464101802
:10293000110A0C1A74500000000080004140283039
:102940001010080C873C0E00E00804020001010191
:102950000103070EFEFCF8E0071F3E7C78F8F8F84C
:10296000F8FCFE7F7F3F1F070205050505023C7E40
:10297000C3F5C37E3C00002C2C343400043C3C04E2
:1029800000383C1438003C3C142C00043C3C04AAA5
:10299000AAAAAAAAAAAAAAAAAAAAAAAAAAAAAAAA97
:1029A000AAAAAAAAAAAAAAAAAAAAAAAAAAAAAAAA87
:1029B000AAAAFAAAFAAEFBFE3BFEEBEEBBEEBBEE1A
:1029C000BBEEFFFFFF000000000000E3BFFFAAFF17
:1029D000AAFFBFE3000000000000FFFFFFEEBBEE18
:1029E000BBEEBBEEEBFE3BFEFBAEFAAAFAAAAAAA2E
:1029F000AAAAAAAAAAAAAAAAAAAAAAAAAAAAAAAA37
:102A0000AAAAAAAAAAAAAAAAAAAAAAAAAAAAAAAA26
:102A1000AAAAAAAAAAAAAAAAAAAAAAAAAAAAAAAA16
:102A2000AAAAAAAAAAAAAAAAAAAAAAAAAAAAAAAA06
:102A3000AAAAAFEABFEABFEBBEF8C31F7FFEFBEE58
:102A4000BBEEBFFF03000000000000EFEF1B0B0117
:102A50002BEBEFFF00000000000007FFBFEEBBEE16
:102A6000FBFE3F0FC3F8BEEBBFEABFEAAFAAAAAABC
:102A7000AAAAAAAAAAAAAAAAAAAAAAAAAAAAAAAAB6
:102A8000AAAAAAAAAAAAAAAAAAAAAAAAAAAAAAAAA6
:102A9000AAAAAAAAAAAAAAAAAAAAAAAAAAAAAAAA96
:102AA000AAAAAAAAAAAAAAAAAAAAAAAAAAAAAAAA86
:102AB000EABAEABEEBBEEBFEEBFE0F03000101013A
:102AC00003060703000000000000000000000000F3
:102AD00000000303000000000000000307020301E0
:102AE00001000007FFFEEBFEEBBEEBBEEABAEAAA6E
:102AF000AAAAAAAAAAAAAAAAAAAAAAAAAAAAAAAA36
:102B0000AAAAAAAAAAAAAAAAAAAAAAAAAAAAAA3A95
:102B10003A3A3A3A3A3A3A3A3A3A3A3A3A3A3A3A15
:102B20003A3A3A3A3A3A1A1A1A1A1A1E1A1F1A9FB7
:102B30006E1716477B7D7D7D7D7DFDFCFCFCFC7C5E
:102B40001C00BCA4A4BC80BCA4A4BC80BCA4242441
:102B5000BC80BCA4A4BC80BCA4A4BC80003C7C7C85
:102B60007C7C7C7D7DFDFDFDFDFB07131217EE1FB8
:102B70001A1F1A1E1A1A1A1A1A1A1A1A1A1A1A1AAC
:102B80001A1A1A1A1A1A1A1A1A1A1A1A1A3A3A007F
:102B90000000000000000000000000000000000035
:102BA000000000000000000000000000E0988681A6
:102BB000808080841EFEFCF8F8FEFFFF3F0F8380BC
:102BC000189EDFDFC7C3C3C3C3FFFFFFFFFF0000C3
:102BD000FFFFFFFFFFC3C3C3C7FFFFFFF8018181F2
:102BE0000181E1F9FEFF7F1F7FFFF8F0C0008083C5
:102BF0008CF0000000000000000000000000000059
:102C000000000000000000000000000000000000C4
:102C100090502000E010E000F0007050F000000044
:102C200000000000000000000080E030F0C181C121
:102C30004161F131000083C3E39393E3C3020101D7
:102C4000E2F31313131313B3B303F3F351505150BF
:102C5000D3F3630303E3F3131313131333E00100FC
:102C60003233737353D190908003033333737251B3
:102C7000D190908000000000000000000000F040B3
:102C8000B000F05000F010E0008000F010100000E4
:102C9000010101000001000001000101010000002C
:102CA0000000000000000000000100000001010021
:102CB000000101000001010000000000010100000E
:102CC00001010101010101010100010100000000F9
:102CD00000000101000001010101010101010000EA
:102CE00000010101010101010100000001010101D8
:102CF00001010101000000000000000000000100CF
:102D000001000101000100010000000101010000BB
:102D100000000000000000000000000000000000B3
:102D200000000000000000000000000000000000A3
:102D30000000000000000000000000000000000093
:102D40000000000000000000000000000000000083
:102D50000000000000000000000000000000000073
:102D60000000000000000000000000000000000063
:102D70000000000000000000000000000000000053
:102D80000000000000000000000000000000000043
:102D9000000000003E5B4F5B3E3E6B4F6B3E1C3EB7
:102DA0007C3E1C183C7E3C181C577D571C1C5E7FCB
:102DB0005E1C00183C1800FFE7C3E7FF001824184A
:102DC00000FFE7DBE7FF30483A060E26297929267F
:102DD000407F050507407F05253F5A3CE73C5A7F69
:102DE0003E1C1C08081C1C3E7F14227F22145F5FBF
:102DF000005F5F06097F017F006689956A606060F9
:102E0000606094A2FFA29408047E040810207E2033
:102E10001008082A1C08081C2A08081E1010101088
:102E20000C1E0C1E0C30383E3830060E3E0E0600CE
:102E30000000000000005F00000007000700147F92
:102E4000147F14242A7F2A122313086462364956F9
:102E500020500008070300001C2241000041221CF2
:102E6000002A1C7F1C2A08083E08080080703000D9
:102E70000808080808000060600020100804023EEE
:102E80005149453E00427F4000724949494621412F
:102E9000494D331814127F1027454545393C4A499E
:102EA00049314121110907364949493646494929DD
:102EB0001E000014000000403400000008142241ED
:102EC0001414141414004122140802015909063E76
:102ED000415D594E7C1211127C7F494949363E4171
:102EE0004141227F4141413E7F494949417F090992
:102EF00009013E414151737F0808087F00417F412D
:102F0000002040413F017F081422417F4040404063
:102F10007F021C027F7F0408107F3E4141413E7FBB
:102F2000090909063E4151215E7F091929462649B2
:102F300049493203017F01033F4040403F1F204089
:102F4000201F3F4038403F63140814630304780493
:102F5000036159494D43007F41414102040810205B
:102F6000004141417F0402010204404040404000D2
:102F70000307080020545478407F284444383844DC
:102F8000444428384444287F385454541800087E58
:102F9000090218A4A49C787F0804047800447D40AA
:102FA000002040403D007F1028440000417F400049
:102FB0007C047804787C080404783844444438FC61
:102FC0001824241818242418FC7C080404084854E5
:102FD00054542404043F44243C4040207C1C2040A2
:102FE000201C3C4030403C44281028444C90909099
:102FF0007C4464544C4400083641000000770000D3
:10300000004136080002010204023C2623263C1E31
:10301000A1A161123A4040207A38545455592155A3
:1030200055794121545478412155547840205455C4
:1030300079400C1E52721239555555593954545411
:103040005939555454580000457C410002457D4291
:103050000001457C40F0292429F0F0282528F07C47
:10306000545545002054547C547C0A097F49324908
:103070004949323248484832324A4848303A414158
:10308000217A3A42402078009DA0A07D39444444F2
:10309000393D4040403D3C24FF2424487E4943665E
:1030A0002B2FFC2F2BFF0929F620C0887E09032037
:1030B000545479410000447D413048484A323840F8
:1030C00040227A007A0A0A727D0D19317D2629295B
:1030D0002F28262929292630484D4020380808085D
:1030E0000808080808382F10C8ACBA2F102834FA7E
:1030F00000007B000008142A142222142A140895C8
:1031000000220095AA005500AAAA55AA55AA0000B7
:1031100000FF00101010FF00141414FF001010FF27
:1031200000FF1010F010F0141414FC001414F70039
:10313000FF0000FF00FF1414F404FC141417101F08
:1031400010101F101F1414141F00101010F0000096
:1031500000001F101010101F10101010F0100000B1
:1031600000FF101010101010101010FF10000000C1
:10317000FF140000FF00FF00001F10170000FC04F8
:10318000F414141710171414F404F40000FF00F7DB
:1031900014141414141414F700F71414141714103E
:1031A000101F101F141414F4141010F010F000006D
:1031B0001F101F0000001F14000000FC140000F08E
:1031C00010F01010FF10FF141414FF141010101F33
:1031D00000000000F010FFFFFFFFFFF0F0F0F0F044
:1031E000FFFFFF0000000000FFFF0F0F0F0F0F3861
:1031F000444438447C2A2A3E147E02020606027E9B
:10320000027E0263554941633844443C04407E20B9
:103210001E2006027E020299A5E7A5991C2A492ACA
:103220001C4C7201724C304A4D4D30304878483059
:10323000BC625A463D3E494949007E0101017E2A51
:103240002A2A2A2A44445F444440514A4440404484
:103250004A51400000FF0103E080FF000008086BB6
:103260006B083612362436060F090F0600001818B0
:103270000000001010003040FF0101001F01011E7E
:1032800000191D1712003C3C3C3C000000000000EF
:10329000000000240027002A002D0030000000005C
:1032A00000250028002B002E003100040802011028
:1032B000408040102040804080080204018040206F
:1032C0001002011080102040402004040404040374
:1032D00004050202020204030202020206060606B6
:1032E0000606040402020204040601150126013741
:1032F000014A015D01720188019F01B801D201EE0E
:10330000010B022A024B026E029302BA02E402107F
:10331000033F037003A403DC03170455049704DD83
:103320000427057505C80520067D06E0064907B88F
:10333000072D08A9082D09B9094D0AEA0A900B4082
:103340000CFA0CC00D910E6F0F5A1053115B1272D4
:10335000139A14D41520178018F519801B231DDE2D
:103360001EB420A622B524E4263429A72B402E0023
:1033700031EA330037453ABC3D68414C456B49C89A
:103380004D68524F57805C006210111213151617CA
:10339000181A1C1D1F21232527292C2E3134373ABA
:1033A0003E4145494E52575C62686E757B838B93F4
:1033B0009CA5AFB9C4D0DCE9F7080B0002020201FA
:1033C00000090400000102020000052400100105AC
:1033D00024010101042402060524060001070581D9
:1033E0000310004009040100020A00000007050262
:1033F0000240000007058302400000040309041294
:10340000010002EF02014041233680000101020366
:103410000141726475696E6F204C4C4300417264C7
:1034200075696E6F204C656F6E6172646F00523209
:1034300011241FBECFEFDAE0DEBFCDBF11E0A0E068
:10344000B1E0E0E9F7E602C005900D92AE38B107B1
:10345000D9F726E0AEE8B1E001C01D92A036B20770
:10346000E1F71AE1C8E1DAE104C02197FE010E9408
:10347000BB33C731D107C9F70E9442260C94C6332B
:103480000C940000CF92DF92EF92FF920F931F9364
:10349000CF93DF936C017A018B01C0E0D0E0CE15B1
:1034A000DF0581F0D8016D918D01D601ED91FC9180
:1034B0000190F081E02DC6010995892B11F021962C
:1034C000EECF7E01C701DF91CF911F910F91FF9049
:1034D000EF90DF90CF900895CF92DF92EF92FF921E
:1034E0001F93CF93DF93E82FF0E0EE5DFE4F108146
:1034F000E62FF0E0603330F4E757FC4CE491CE2F38
:10350000D0E006C0EE0FFF1FE757FD4CC591D491E8
:103510006E01E12CF12C60E074E284EF90E0A701F1
:1035200096010E943033BA01A90141505109610945
:1035300071094115510581E06807710580F060E966
:1035400070ED83E090E0A70196010E943033BA014C
:10355000A901415051096109710983E001C081E06D
:103560001130E9F0133091F590919100987F892BFB
:103570008093910050939900409398001092950089
:1035800010929400D093D501C093D40181E0809330
:10359000D3018091710082608093710017C0909177
:1035A000D601911113C090918100987F892B80934F
:1035B00081005093890040938800109285001092FA
:1035C000840080916F00826080936F00DF91CF91C3
:1035D0001F91FF90EF90DF90CF900895E82FF0E0DB
:1035E000EE5DFE4F8081813019F0833089F00895BF
:1035F0008091D60181111CC080916F008D7F8093D6
:103600006F008091C001E091BE01F091BF010CC03C
:103610001092D3018091D20181110AC08091D00112
:10362000E091CE01F091CF01908180958923808334
:10363000089580918E0108950895089580E090E0A6
:1036400008950E94C1331F920F920FB60F9211245A
:103650002F933F934F935F936F937F938F939F939A
:10366000AF93BF93CF93DF93EF93FF938091D301F9
:10367000882349F08091D201811105C08091D10148
:10368000882309F4AAC08091CD01882309F4B5C02C
:103690008091C9019091CA01A091CB01B091CC0158
:1036A000892B8A2B8B2B09F4A8C08091C90190919A
:1036B000CA01A091CB01B091CC010197A109B10938
:1036C0008093C9019093CA01A093CB01B093CC0120
:1036D000892B8A2B8B2B09F090C0D1E0E091C70198
:1036E000F091C801DF011196B093C801A093C70102
:1036F0009491892F807FC92FCF70803821F48C2F2F
:103700000E94EE1AEBCF8039F9F4E091DA05F091DE
:10371000DB0509958D278093D101E091C701F091D8
:10372000C801CF0101969093C8018093C7016491AD
:103730008091C601C81790F6C13009F058C0809139
:10374000C5018111CBCF53C087FD3AC03296F093AB
:10375000C801E093C701FD01A491B0E0B92B20910D
:10376000D4013091D5010E9484336C507E4F8F4F2D
:103770009F4F28EE33E040E050E00E9462332093F8
:10378000C9013093CA014093CB015093CC01809181
:10379000C9019091CA01A091CB01B091CC01892BB4
:1037A0008A2B8B2B51F581E090E0A0E0B0E0809374
:1037B000C9019093CA01A093CB01B093CC011DC065
:1037C000803E29F41092C8011092C70187CF803F34
:1037D00009F084CF1092CD0110C09091D001E091FA
:1037E000CE01F091CF018081892780834CCF67FD86
:1037F00075CF8C2F0E946C1A71CFFF91EF91DF91E2
:10380000CF91BF91AF919F918F917F916F915F9178
:103810004F913F912F910F900FBE0F901F901895D1
:103820001F920F920FB60F9211248F939F93AF9315
:10383000BF93EF93FF938091D601882309F449C089
:103840008091C1019091C201A091C301B091C401C6
:10385000892B8A2B8B2B51F19091C001E091BE01F5
:10386000F091BF018081892780838091C10190916F
:10387000C201A091C301B091C401181619061A061D
:103880001B06A4F58091C1019091C201A091C301D2
:10389000B091C4010197A109B1098093C10190932E
:1038A000C201A093C301B093C40120C01092D20101
:1038B0001092D60180916F008D7F80936F00809170
:1038C000C001E091BE01F091BF01908180958923F4
:1038D0000CC08091D101811109C09091C001E0918B
:1038E000BE01F091BF01808189278083FF91EF9114
:1038F000BF91AF919F918F910F900FBE0F901F902E
:1039000018959091C601923009F471C0292F30E0CA
:10391000F901EE5DFE4F4081F901E454FE4F8083D2
:10392000913031F42091BC01821302C09093C50103
:103930009F5F9093C60190E0FC01E653FD4C2491FB
:10394000FC01E555FD4C849130E0220F331FF90155
:10395000E356FD4C65917491F901E157FD4CA59139
:10396000B4919C91982B9C93413019F04330D9F03D
:10397000089590916400977F909364001092800066
:1039800010928100909181009860909381009091B5
:1039900081009160909381007093BF016093BE019C
:1039A0008093C001089590916500977F9093650082
:1039B00010929000109291009091910098609093D5
:1039C0009100909191009160909391007093CF013C
:1039D0006093CE018093D0018091C601882321F0AD
:1039E0006CE380E00E946C1A80E00C94EE1A08955B
:1039F0002D9A0895BC0180E090E00C94BE258FB113
:103A00008095807F669B88601C9B846008950C94E1
:103A10001A333E9A3F9A81E080938E01089580E0A8
:103A20000C9425212F923F924F925F926F927F923A
:103A30008F929F92AF92BF92CF92DF92EF92FF92BE
:103A40000F931F93CF93DF93CDB7DEB760970FB679
:103A5000F894DEBF0FBECDBFEB82E22EF12CF88AC8
:103A6000EF869701280F391F37FD3CC1803891053B
:103A70000CF038C19B01200F311D37FD33C160347C
:103A800071050CF02FC1DB0177FF04C0AA27BB270B
:103A9000A61BB70BA770BB279B0177FF02C0295F4E
:103AA0003F4FE3E035952795EA95E1F777FF08C0AA
:103AB0002150310968E070E0FB01EA1BFB0BDF01DC
:103AC000E02FE695E695E695F0E0077009F031966F
:103AD000B9017695762F662777956795680F791FD8
:103AE00066527E4F7F01E20EF31EFF82EE82C12CF2
:103AF000D12CE8E0F0E08F010A1B1B0B1D830C8327
:103B0000EE80FF80E216F30609F4ECC028303105A0
:103B100009F4E8C02F3F0FEF30070CF4D6C08B013B
:103B200000581F4F198708875B014B013B012C018F
:103B300018011A83098300E010E0EF84F8880E155D
:103B40001F050CF0C2C0E0E84E16510409F4BDC0D8
:103B500057FC9FC02F3FFFEF3F0709F4BFC078011C
:103B6000EC0CFD1CEB81E130A9F4F701E40FF51F2B
:103B7000E491EE2EF12CF7010A2E02C0EE0FFF1F8A
:103B80000A94E2F7FB87EA87F401E080FA85EF2ADE
:103B9000F4012CC0FB81F11116C0F701E40FF51FF1
:103BA000E491F0E00A2E02C0EE0FFF1F0A94E2F744
:103BB0007F01E094F094FB86EA86F501E080FA85C7
:103BC000EF22F50113C0F701E40FF51FE491F0E0D7
:103BD0007F010A2E02C0EE0CFF1C0A94E2F7FB865E
:103BE000EA86F301E080FA85EF26F301E082109780
:103BF00009F44FC02730310509F44BC07801EC0CB3
:103C0000FD1CFB81F130B1F4F701E40FF51FE491E5
:103C1000F0E07F010C8002C0F594E7940A94E2F78B
:103C2000FB86EA86E885F985E080FA85EF2AE88553
:103C3000F9852EC0FB81F11118C0F701E40FF51FC3
:103C4000E491F0E00C8002C0F595E7950A94E2F764
:103C50007F01E094F094FB86EA86E981FA81E080B6
:103C6000FA85EF22E981FA8113C0F701E40FF51F0D
:103C7000E491F0E07F010C8002C0F594E7940A948F
:103C8000E2F7FB86EA86F101E080FA85EF26F10192
:103C9000E0820F5F1F4FE885F9853196F987E88745
:103CA000E981FA813196FA83E983FFEF2F1A3F0AFF
:103CB000EFEF4E1A5E0AFFEF6F1A7F0AEFEF8E1AD0
:103CC0009E0AFFEFAF1ABF0A38CF2F5F3F4F6058F1
:103CD0007F4FEF84F888CE0CDF1C12CF109709F0CD
:103CE0008DCFD7CF60960FB6F894DEBF0FBECDBF95
:103CF000DF91CF911F910F91FF90EF90DF90CF90C8
:103D0000BF90AF909F908F907F906F905F904F90FB
:103D10003F902F90089580389105B8F46034710574
:103D2000A0F490E121E061FD24E060FD220F62FD3E
:103D30002295687F969FD0011124A80FA652BE4FEE
:103D40008C91822B40FF82278C9308952F923F9273
:103D50004F925F926F927F928F929F92AF92BF929B
:103D6000CF92DF92EF92FF920F931F93CF93DF9347
:103D7000CDB7DEB727970FB6F894DEBF0FBECDBF25
:103D80009F838E836A30A1F4DC0155962C91559760
:103D900051968D919C915297B8E02B9F800D911D6B
:103DA0001124EE81FF81928B818B108A1786ADC022
:103DB0006D3009F4AAC0AE81BF811F960D911C9190
:103DC000509700381105BCF0EE81FF812589422F04
:103DD00050E087859089F6E02F9F800D911D11247A
:103DE000AE81BF8150969C938E931F9756962C91CF
:103DF000211175C08AC0EE81FF8181889288F0E42C
:103E00008F1691040CF7AE81BF8155963C90C80186
:103E1000B5E03B9E800D911D112418161906A4F6DD
:103E2000432C512CC401E8E03E9E800D911D1124CD
:103E3000181619064CF6AE81BF815496BC91BC830E
:103E4000EE81FF81F389FD8325E0629FB00111249B
:103E5000CB018157924D3C011982F3012490F981E5
:103E6000F53009F4212C640128E02B8320FE03C0E7
:103E70003D813A8302C08C818A839A81911104C06A
:103E8000AC81BD81AB17B9F078018E2D801B8315F5
:103E900090F456018A2D8C19831548F44A81B50196
:103EA000C7010E948B1EEFEFAE1ABE0AF3CFFFEFE1
:103EB000EF1AFF0AEACF26942B8121502B83C40CE2
:103EC000D51C2111D3CF39813F5F3983040D151DD6
:103ED000C30101963C01363009F0BFCF75CF6AEFC0
:103EE00064039001659F300D112420583F4F28171F
:103EF00039075CF4AE81BF81ED91FC91119701907F
:103F0000F081E02D6AE0CD01099581E090E02796EF
:103F10000FB6F894DEBF0FBECDBFDF91CF911F91DA
:103F20000F91FF90EF90DF90CF90BF90AF909F9058
:103F30008F907F906F905F904F903F902F9008955B
:103F4000E091DA05F091DB050995882321F0809155
:103F5000C601823010F40C94091D81E08093D601D3
:103F60008091BB018093D20180918100887F816024
:103F7000809381008FE39FE1909389008093880074
:103F80008CE390E0A0E0B0E08093C1019093C20187
:103F9000A093C301B093C40180916F0082608093AD
:103FA0006F00D9CF2091D901211103C08FEF9FEF6E
:103FB00008955FB7F89422E02093E9002091F20081
:103FC00030E01216130614F421E030E0422FFC0119
:103FD00084E6415038F028988093D8019091F10000
:103FE0009193F7CF2115310521F08091F2008823BC
:103FF00019F05FBFC90108958BE68093E800F9CFFF
:104000002FB7F89483E08093E9009091E800892F1E
:10401000807295FF04C09091F20080E4891B2FBF4D
:104020000895CF93DF931F92CDB7DEB76983DC018C
:10403000ED91FC910280F381E02D41E050E0BE0162
:104040006F5F7F4F09950F90DF91CF91089583E0C7
:104050008093E9008091F200882319F08AE380932D
:10406000E80008950E94002090E00895CF93DF9328
:104070001F92CDB7DEB7FC018485958597FD05C0FD
:104080002FEF3FEF358724870BC0CE0101960E94AA
:10409000D21F019719F4898190E002C08FEF9FEF42
:1040A0000F90DF91CF9108950F931F93CF93DF93DC
:1040B0001F92CDB7DEB78C01FC018485958597FFF3
:1040C0000EC0CE0101960E94D21F019719F489817A
:1040D00090E002C08FEF9FEFF80195878487F80189
:1040E000848595850F90DF91CF911F910F91089551
:1040F000FC018485958597FD0BC09FB7F89482E0FD
:104100008093E9008091F2009FBF90E001960895AE
:104110009FB7F89482E08093E9008091F2009FBFFE
:1041200090E008958F929F92AF92BF92CF92DF92CC
:10413000EF92FF920F931F93CF93DF936C017B015C
:104140008A0180911901882309F45CC08091D9010A
:10415000882309F457C08091D70180FF05C0809162
:10416000E00082608093E000E801B12C8AEFA82E85
:1041700093E0892E2AE3922E209711F4BB20D9F1E7
:104180000E94002081110AC0AA94AA20D9F161E0FE
:1041900070E080E090E00E94BE25EECF282F30E056
:1041A000C217D3070CF48C2F9FB7F8948092E900C4
:1041B0002091E80025FF1DC0282F30E0C21BD30B43
:1041C000F701815020F041914093F100FACFE20EC7
:1041D000F31EBB2019F09092E8000AC08091E8001D
:1041E00085FD07C09092E800BB24B394209709F0A6
:1041F000B12C9FBFC1CF5D9884E68093F405101663
:10420000110644F081E090E0F6019383828380E020
:1042100090E001C0C801DF91CF911F910F91FF90F5
:10422000EF90DF90CF90BF90AF909F908F900895C8
:1042300080E0EAEDF1E081118FEF0024819381931A
:10424000819381930394D1F70895EAEDF1E0A0E022
:10425000B8E000800EBC8111012C1197A0FDFDCFAC
:104260000192B9F70DB40895009769F0FC0101902F
:104270000020E9F73197AF01481B590BBC018DEDC8
:1042800095E00C94421A80E090E008958F929F92FE
:10429000AF92BF92CF92DF92EF92FF920F931F9354
:1042A000CF93DF93CDB7DEB7A1970FB6F894DEBFFB
:1042B0000FBECDBF6C01990FEE08FF08F7FE2BC0B3
:1042C0006DE28DED95E00E94A61E8C01222733271A
:1042D000A9012C193D094E095F0919A2CE01819649
:1042E0007C019AE0892E912CA12CB12CCA01B90134
:1042F000A50194010E946233605DF70162937F0122
:10430000211531054105510589F7CF010E9434215E
:10431000800F911F1DC0A701960119A28E010F5D8C
:104320001F4F8AE0C82ED12CE12CF12CCA01B90113
:10433000A70196010E946233605DF80162938F01CC
:10434000211531054105510589F7CF010E9434211E
:10435000A1960FB6F894DEBF0FBECDBFDF91CF910F
:104360001F910F91FF90EF90DF90CF90BF90AF9093
:104370009F908F9008952F923F924F925F926F92ED
:104380007F928F929F92AF92BF92CF92DF92EF92E5
:10439000FF920F931F93CF93DF93EC018B017A0170
:1043A0006901C61AD70AD7FE03C0D194C194D108B7
:1043B00047018C1A9D0A97FE03C09194819491083D
:1043C0008C149D0454F49E2D8F2D7901292F382FA4
:1043D0009C2F8D2FE801092F182FEC16FD0654F4A1
:1043E000902F812F8901292F382F9C2F8D2FE701A6
:1043F000E92EF82E17012C1A3D0A2901401A510AFC
:1044000057FE03C0519441945108310137FE03C057
:104410008FEF681A780A759467940217130714F0DF
:104420008FEF01C081E0A82E880FBB08EC16FD06B7
:10443000ACF041E08C149D041CF4BE01C80102C024
:10444000B801CE010E948B1E6418750877FE04C067
:104450000A0D1B1D620C731C2196E8CFDF91CF91D2
:104460001F910F91FF90EF90DF90CF90BF90AF9092
:104470009F908F907F906F905F904F903F902F9084
:1044800008958091F90581110DC082E08093F505B2
:1044900084E08093F6051092F8051092F70581E00C
:1044A0008093F90585EF95E008951F920F920FB65E
:1044B0000F9211248F939F938091E1009091E100DE
:1044C000937F9093E10083FF0FC01092E90091E089
:1044D0009093EB001092EC0092E39093ED00109219
:1044E000D90198E09093F00082FF20C093E0909370
:1044F000E9009091F200992319F09AE39093E80073
:104500009091F405992339F09091F405915090938E
:10451000F405992389F19091D801992339F090916C
:10452000D80191509093D801992341F184FF10C094
:104530008091E2008E7E81608093E2008091E100B4
:104540008F7E8093E1008091D7018E7E806111C0C3
:1045500080FF16C08091E2008E7E80618093E20031
:104560008091E1008E7E8093E1008091D7018E7E64
:1045700081608093D70104C05D9ACDCF289AD6CFB1
:104580009F918F910F900FBE0F901F9018954091A3
:104590005D0650915E0620915B0630915C064217E5
:1045A0005307B4F49091E8009570E1F39091E8001E
:1045B00092FD19C08093F10080915D0690915E0696
:1045C00001968F739927892B19F48EEF8093E80059
:1045D00080915D0690915E06019690935E068093B1
:1045E0005D0681E0089580E00895DF92EF92FF92EA
:1045F0000F931F93CF93DF93D82E8A017B01E40E94
:10460000F51EEB01CE15DF0571F0D7FE03C0FE01EC
:10461000849101C088810E94C72221968111F2CF26
:104620008FEF9FEF01C0C801DF91CF911F910F91D4
:10463000FF90EF90DF900895615030F02091F100ED
:10464000FC0120830196F8CF289884E68093D80156
:1046500008953FB7F8948091570690915806A0911D
:104660005906B0915A0626B5A89B05C02F3F19F0F0
:104670000196A11DB11D3FBFBA2FA92F982F8827E2
:10468000820F911DA11DB11DBC01CD0142E0660F3D
:10469000771F881F991F4A95D1F708950F931F938D
:1046A000CF93DF931F92CDB7DEB782E0898342E4D8
:1046B00050E069EB73E380E80E94F5220E944122FA
:1046C000DC0112960D911C9113970115110589F0CB
:1046D000D801ED91FC910280F381E02DBE016F5F66
:1046E0007F4FC801099597FD04C0F8010085118529
:1046F000ECCF89810F90DF91CF911F910F91089599
:104700001F920F920FB60F921124CF92DF92EF9269
:10471000FF920F931F932F933F934F935F936F934A
:104720007F938F939F93AF93BF93EF93FF93CF9319
:10473000DF93CDB7DEB76C97DEBFCDBF1092E90037
:104740008091E80083FFFBC168E0CE0145960E949E
:104750001C2382EF8093E8008D8987FF05C090912C
:10476000E80090FFFCCF03C09EEF9093E800982FE5
:10477000907609F0C6C09E894F89588D2F89F88C94
:1047800091110CC0803829F4809155068093F10076
:1047900002C01092F1001092F10045C1913051F425
:1047A000811141C14130510509F03DC1809155064B
:1047B0008D7F0BC0933061F4811135C141305105BB
:1047C00009F031C1809155068260809355062BC156
:1047D000953049F48091E80080FFFCCF822F8068FB
:1047E0008093E30020C1963009F05EC00B8D1C8DD4
:1047F00022E01092E90010925E0610925D06F2121D
:1048000032C010925C0610925B060E944E2399E023
:10481000BE016F5F7F4FDB01E92F1D92EA95E9F73B
:104820009983FA8291E09E8390EA98879AEF99871C
:1048300020915D0630915E06275F3F4F3C832B83BE
:104840008D831092E90010925E0610925D0610931F
:104850005C0600935B0649E050E080E00E94F52290
:104860000E944E23E0C010935C0600935B060E94FA
:104870004122DC0112960D911C911397011511052F
:1048800009F4BBC0D801ED91FC910480F581E02DC5
:10489000BE016B5E7F4FC8010995009709F0C7C044
:1048A000F80100851185EACF973009F445C19830A9
:1048B00021F481E08093F100B6C0993009F0B3C0D3
:1048C000837009F039C1EBE4F1E081E031E096E377
:1048D0002081211109C08EE78093EA001092EA003E
:1048E0008F898093D9019FC08093E9003093EB00BA
:1048F00021912093EC009093ED008F5F873041F77A
:10490000EACF8B8D9C8D1092E90010925E0610927A
:104910005D0690935C0680935B06898D811153C080
:104920008E899D89913A49F4813209F005C147E0A9
:1049300050E062E171E080E0BBC0913209F0FCC060
:10494000833269F48F89988DA0E0B0E080931A01DA
:1049500090931B01A0931C01B0931D0164C0803291
:1049600069F48091E80082FFFCCF67E082E191E08A
:104970000E941C238BEF8093E80055C0823209F01F
:1049800052C08F8980931901EEEFFFE785919491D2
:104990008B3F9C4D19F0E0E0F8E002C0EEEFFAE04A
:1049A0008091120190911301A0911401B091150111
:1049B000803B9440A105B10509F09EC0809119018A
:1049C00080FF79C099C00E944122FC0102811381BD
:1049D0000115110509F4B0C0D801ED91FC910190C9
:1049E000F081E02DBE016B5E7F4FC80109958111FA
:1049F0001AC0F80100851185EBCFF1E0FF1609F42C
:104A00004EC0F3E0FF1298C08F89882309F44AC092
:104A1000823089F440E860E18DE194E30E948932BC
:104A2000882309F489C08EEF8093E80088C01816A7
:104A30001906CCF381C0813029F440E86BE081E1B4
:104A400094E3ECCF833009F077C00E944122DC016F
:104A50001296ED90FC9013978E010F5F1F4F680127
:104A6000E114F10479F0D701ED91FC910680F78112
:104A7000E02DB801C7010995080F111DF701E08469
:104A8000F184EECFD8011C92F60101900020E9F7E5
:104A90003197BF016C197D0940E0C601BFCF6FEFB0
:104AA00073E302C06BEF73E3FB01449150E080E8D5
:104AB0000E94F522B8CFEE3F2AE0F20751F0808144
:104AC00091818737A7E79A0721F09093FF0A809397
:104AD000FE0A87E797E79183808380916000809347
:104AE0005F069BE088E10FB6F894A895809360007C
:104AF0000FBE9093600097CF808191818737974751
:104B000009F091CFA8958091600088618093600042
:104B100080915F0680936000EE3FBAE0FB0739F0BA
:104B20008091FE0A9091FF0A918380837CCF10923E
:104B3000FF0A1092FE0A77CF81E28093EB006C9619
:104B40000FB6F894DEBF0FBECDBFDF91CF91FF91BE
:104B5000EF91BF91AF919F918F917F916F915F91F5
:104B60004F913F912F911F910F91FF90EF90DF9008
:104B7000CF900F900FBE0F901F9018958F929F921D
:104B8000AF92BF92CF92DF92EF92FF926B017C01C6
:104B90000E9429234B015C01C114D104E104F104FA
:104BA000F1F00E942923DC01CB0188199909AA0997
:104BB000BB09883E9340A105B10570F321E0C21AFC
:104BC000D108E108F10888EE880E83E0981EA11C48
:104BD000B11CC114D104E104F10419F7DDCFFF9039
:104BE000EF90DF90CF90BF90AF909F908F900895FF
:104BF0001F920F920FB60F9211242F933F938F9312
:104C00009F93AF93BF938091510690915206A091CC
:104C10005306B09154063091560623E0230F2D37EA
:104C200020F40196A11DB11D05C026E8230F0296B0
:104C3000A11DB11D209356068093510690935206F4
:104C4000A0935306B093540680915706909158064E
:104C5000A0915906B0915A060196A11DB11D8093ED
:104C6000570690935806A0935906B0935A06BF91E1
:104C7000AF919F918F913F912F910F900FBE0F9009
:104C80001F901895789484B5826084BD84B5816046
:104C900084BD85B5826085BD85B5816085BD809107
:104CA0006E00816080936E0010928100809181007F
:104CB0008260809381008091810081608093810077
:104CC000809180008160809380008091910082605B
:104CD00080939100809191008160809391008091F8
:104CE00090008160809390008091C10084608093E7
:104CF000C1008091C10082608093C1008091C10099
:104D000081608093C1008091C30081608093C30063
:104D10008091C00082608093C0008091C200816059
:104D20008093C20080917A00846080937A008091A1
:104D30007A00826080937A0080917A00816080930B
:104D40007A0080917A00806880937A001092D9016D
:104D5000109255061092D7018091D7008160809300
:104D6000D70080EA8093D80089B5806189BD89B574
:104D7000826089BD09B400FEFDCF61E070E080E093
:104D800090E00E94BE258091D8008F7C8061809346
:104D9000D8008091E000807F8093E0008091E10066
:104DA0008E7E8093E1008DE08093E200559A209AF8
:104DB00081EC80937C0085B1806F85B984B1877E5A
:104DC00084B984B1876E84B95E9A5F988AB1806D28
:104DD0008AB9769A6E9881B3806F81BB899880B3C7
:104DE0008D7080BB80E58CBD81E08DBD85E090E05D
:104DF0000E94FA1C5F9A85E090E00E94FA1C5E987F
:104E00005C98ECE5F1E089E691E024912EBD00008C
:104E10000DB407FEFDCF31968E179F07B1F75C9A50
:104E200081E88093640080916500816080936500D3
:104E300081EE95E00E940F1D0E94FF1C87FF24C099
:104E40005C9885EA8EBD00000DB407FEFDCF5C9A2C
:104E50002E982F982D988091640080628093640032
:104E600081E083BF889513BEFCCF2D980E94FF1C64
:104E70008478843871F00E94FF1C8471843131F190
:104E800088EC90E00E94FA1C0E94FF1C82FDEDCF8E
:104E90003AC00E94F81C88EC90E00E94FA1C2F98FF
:104EA00082E090E00E941A338F3F29F06FEF82E09A
:104EB00090E00E94223384EF91E00E94FA1C2F9A26
:104EC0000E94FF1C84788438D9F3D5CF0E94F81C47
:104ED00088EC90E00E94FA1C2E9882E090E00E94FC
:104EE0001A33882329F060E082E090E00E942233A8
:104EF00084EF91E00E94FA1C2E9A0E94FF1C84719C
:104F00008431D9F3BDCF0E94F81C82E090E00E946A
:104F1000071D882319F00E94091D04C010928E01FC
:104F20003E983F9881E090E00E94071D182F147072
:104F300081FF3CC011112E98C0EFDFEF0E94FF1CD3
:104F400086FF05C02E9A2F9A0E94F81C2FC01123AD
:104F500029F0C430D10511F42E9A2F9881E00E94D7
:104F60002521EE24E39400E128E54CEA50E0BE015F
:104F700084E190E00E94121D81EE95E00E940F1DD9
:104F80008FE090E00E94FA1C2196C931D105B1F65C
:104F9000112311F02F9A2D9880E991E00E94FA1CBC
:104FA0000E94F81C8DED95E00E94113282E390E0A2
:104FB0000E94FA1C0E94FF1C8111F8CF0E94182148
:104FC0001092EF051092EE051092ED051092EC058F
:104FD00080E18093E80585E00E94811C8DE00E94BD
:104FE000811C20E8C22ED12C44244394512C0E94D1
:104FF00018211092EF051092EE051092ED05109217
:10500000EC058FB7F894409151065091520660918B
:105010005306709154068FBF8091E905242F281BF9
:10502000822F9091EA05992331F02093EB0510929D
:10503000EA050C94B5319091E805291758F48F5F73
:10504000891710F00C94B53181E083BF889513BEA9
:105050000C94B53181E08093EA054093E905809195
:10506000E4059091E50501969093E5058093E405AC
:105070008091B9019091BA018130910509F499C0EC
:1050800024F4892B59F00C94B5318230910509F440
:1050900094C6039709F42FC70C94B5311092ED050F
:1050A0001092EC05C6E3D0E0D093EF05C093EE0577
:1050B00081E591E00E9434218CE090E09093ED0531
:1050C0008093EC05D093EF05C093EE05809110011D
:1050D000909111010E94462185E590E09093ED05A5
:1050E0008093EC05D093EF05C093EE0585E591E044
:1050F0000E94342181E690E09093ED058093EC05C9
:10510000D093EF05C093EE058091B5019091B60163
:105110000E944621C091B701D091B8012196D09349
:10512000B801C093B701C931D1056CF1EE24E39405
:1051300000E420E84FE859E260E070E080E090E0B1
:105140000E94121D81EE95E00E940F1DE297DCF097
:1051500020E84FE859E260E070E080E090E00E94D3
:10516000121D08E021E24EE659E264E370E08FE2AE
:1051700090E00E94121D1092B8011092B70181EECA
:1051800095E00E940F1D0E94FF1C83FD02C00C943D
:10519000B5311092B8011092B7011092B601109279
:1051A000B50183E090E09093BA018093B9010C942B
:1051B000B5318091B7019091B80101969093B801F3
:1051C0008093B701809195019091960101969093FB
:1051D0009601809395018091B5019091B601019659
:1051E0009093B6018093B50186E490E09093ED052D
:1051F0008093EC051092EF051092EE0585E591E0A5
:105200000E94342182E590E09093ED058093EC05B7
:105210001092EF051092EE058091B5019091B601C4
:105220000E9446212090080130900901EE24E39469
:1052300005E224E54FE25FE16BE170E0C1010E940D
:10524000121DC0910A01D0910B010BE210E0DD2785
:10525000AB960C171D0794F4AA24A394B12C41E03B
:10526000B501C8010E948B1E9FEFA91AB90A27E059
:10527000A216B104A1F70F5F1F4FEBCFA09006015C
:10528000B0900701C0E0D0E0BB24CA15DB0574F480
:105290000AE010E041E0B801CE010E948B1E0F5FD2
:1052A0001F4F0D301105B1F72196EFCFC0919F012F
:1052B000D091A001209709F082C0C091B701D09190
:1052C000B801C230D1050CF493C110929401109230
:1052D0009301EE24E39408E02EE041E25FE160E018
:1052E00070E080E090E00E94121D2EE047EF5EE14A
:1052F00060E070E08EE090E00E94121D2EE04BED29
:105300005EE160E070E08CE190E00E94121D809010
:105310000E0190900F01A0900C01B0900D01E12CB6
:1053200005E02DE041EC5EE1B401C5010E94121DD3
:10533000EE24E3942DE041EC5EE1B401C5010E944E
:10534000121D81EE95E00E940F1D24970CF450C1B0
:10535000509294014092930108E02EE041E25FE117
:1053600060E070E080E090E00E94121D2EE047EFC8
:105370005EE160E070E08EE090E00E94121D2EE0A1
:105380004BED5EE160E070E08CE190E00E94121D68
:10539000A0900E01B0900F01C0910C01D0910D01B1
:1053A000E12C05E02DE04EEC5EE1B501CE010E945E
:1053B000121DEE24E3942DE04EEC5EE10DC1C130F0
:1053C000D10509F085C0A090B701B090B80142E0C6
:1053D000A416B1040CF40CC1109294011092930124
:1053E000EE24E39408E02EE043E15FE160E070E04A
:1053F00080E090E00E94121D2EE045E05FE160E059
:1054000070E08EE090E00E94121D2EE04BED5EE118
:1054100060E070E08CE190E00E94121D60900E014F
:1054200070900F0180900C0190900D01E12C0BE029
:1054300029E04DE95EE1B301C4010E94121DEE2492
:10544000E39429E04DE95EE1B301C4010E94121D1D
:1054500081EE95E00E940F1D84E0A816B1040CF4C3
:10546000C7C0D0939401C093930108E02EE043E1BC
:105470005FE160E070E080E090E00E94121D2EE0AD
:1054800045E05FE160E070E08EE090E00E94121D78
:105490002EE04BED5EE160E070E08CE190E00E9478
:1054A000121DA0900E01B0900F01C0910C01D0917F
:1054B0000D01E12C0BE029E04FEA5EE1B501CE01E0
:1054C0000E94121DEE24E39429E04FEA5EE184C0BD
:1054D000229709F08DC0C091B701D091B801C230B8
:1054E000D1050CF485C01092940110929301EE2422
:1054F000E39408E02EE043E15FE160E070E080E0EB
:1055000090E00E94121D2EE047EF5EE160E070E047
:105510008EE090E00E94121D2EE049EE5EE160E018
:1055200070E08CE190E00E94121D80900E0190903E
:105530000F01A0900C01B0900D01E12C0DE02DE0C9
:1055400049E65EE1B401C5010E94121DEE24E39418
:105550002DE049E65EE1B401C5010E94121D81EE15
:1055600095E00E940F1D24970CF442C050929401C4
:105570004092930108E02EE043E15FE160E070E0DB
:1055800080E090E00E94121D2EE047EF5EE160E0B7
:1055900070E08EE090E00E94121D2EE049EE5EE188
:1055A00060E070E08CE190E00E94121DA0900E017E
:1055B000B0900F01C0910C01D0910D01E12C0DE0D4
:1055C0002DE043E85EE1B501CE010E94121DEE24FC
:1055D000E3942DE043E85EE1B501CE010E94121D87
:1055E00081EE95E00E940F1D1092B8011092B70154
:1055F0008091950190919601883C91055CF091E035
:10560000291A31083092090120920801109296015E
:105610001092950180919D0190919E010197D1F486
:105620000E940A3368E770E00E9493330A969093D1
:105630009C0180939B010E940A3362E370E00E9408
:105640009333099690939A018093990110929E0149
:1056500010929D0180919D0190919E01892B49F5A9
:10566000C0919701D09198012196D0939801C09351
:105670009701AE0183E0440F551F8A95E1F74D5223
:105680005F4D6091990170919A01EE24E39408E0D6
:1056900028E080919B0190919C010E94121D24970B
:1056A00044F050929E0140929D01109298011092F8
:1056B000970180900401909005012FE0821A9108D3
:1056C0009092050180920401A0900201B090030124
:1056D00045E0A41AB108B0920301A0920201C09162
:1056E0000001D09101012297D0930101C0930001E4
:1056F000EE24E39403E028E04EEF50E26EE370E026
:10570000C4010E94121D01E022E04CEF50E26AE366
:1057100070E0C5010E94121D21E04BEF50E267E3EB
:1057200070E0CE010E94121D22E04CEF50E269E0D1
:1057300070E0C4010E94121D22E04CEF50E26BE0C9
:1057400070E0C5010E94121D21E04BEF50E26DE0B8
:1057500070E0CE010E94121D0E940A3362E370E0E5
:105760000E949333EC018B32910549F420E230E042
:1057700045E350E06BE270E088E290E00AC04F97AA
:1057800051F42FE130E044E650E062E170E086E55C
:1057900090E00E94BB21CE010697029740F422E1DF
:1057A00030E048E150E0BE018CE090E00AC02D9767
:1057B00051F42DE030E046E750E060E370E08AE528
:1057C00090E00E94BB2181EE95E00E940F1D809128
:1057D0000401909105018D3F9F4F24F4D092050163
:1057E000C092040180910201909103018D3F9F4F6F
:1057F00024F4D0920301C0920201809100019091A3
:1058000001018D3F9F4F24F4D0920101C09200010D
:105810000E94FF1C85FF09C080910C0190910D0131
:10582000019790930D0180930C010E94FF1C86FF4D
:1058300009C080910C0190910D01019690930D018A
:1058400080930C010E94FF1C87FF09C080910E010C
:1058500090910F01019790930F0180930E010E9488
:10586000FF1C84FF09C080910E0190910F010196E9
:1058700090930F0180930E010E94FF1C82FF04C0D1
:105880000E94FF1C87FD7BC50E94FF1C82FF04C095
:105890000E94FF1C85FD78C50E94FF1C82FF04C08A
:1058A0000E94FF1C84FD75C50E94FF1C82FF0EC074
:1058B00080919F019091A001029741F4809106018F
:1058C00090910701181619060CF46AC50E94FF1C76
:1058D00083FF08C08091B3019091B4018038910595
:1058E0000CF08EC580910C0190910D0118161906CF
:1058F00024F010920D0110920C0180910C019091F6
:105900000D018436910534F084E690E090930D010A
:1059100080930C0180910E0190910F010B9734F44C
:105920008AE090E090930F0180930E0180910E0128
:1059300090910F01CA9734F08AE390E090930F01A1
:1059400080930E018091AD019091AE010197E9F431
:10595000D092B201C092B1010E940A3368E270E0B5
:105960000E9493330F969093B0018093AF010E94F1
:105970000A3364E070E00E9493339093A401809313
:10598000A3011092AE011092AD018091AD019091F2
:10599000AE01892B39F5C091B101D091B2012197A7
:1059A000D093B201C093B1018091A3019091A40161
:1059B0002AE2289FA001299F500D11244A565C4DD0
:1059C0006091AF017091B001EE24E3940EE025E107
:1059D000CE010E94121DCC3EDF4F24F45092AE0146
:1059E0004092AD018091A7019091A8010197F9F42F
:1059F00087E890E09093AC018093AB010E940A335A
:105A000069E170E00E94933342969093AA018093DB
:105A1000A9010E940A3364E070E00E9493339093DE
:105A2000A2018093A1011092A8011092A701809178
:105A3000A7019091A801892B39F5C091AB01D091B4
:105A4000AC012297D093AC01C093AB018091A1012E
:105A50009091A2012AE2289FA001299F500D1124B4
:105A60004A565C4D6091A9017091AA01EE24E3941D
:105A70000EE025E1CE010E94121DCC3EDF4F24F442
:105A80005092A8014092A701A090B301B090B40138
:105A900025E0A20EB11CB092B401A092B301C09156
:105AA0000E01D0910F01BE016D5F7F4FEE24E39494
:105AB00003E026E048E659E2C5010E94121D40E8D5
:105AC000A416B10424F0D092B401C092B301809125
:105AD000B3019091B4018090B1019090B201881609
